{
  "_format": "hh-sol-artifact-1",
  "contractName": "CivicComplaintRegistry",
  "sourceName": "contracts/CivicComplaintRegistry.sol",
  "abi": [
    {
      "inputs": [],
      "stateMutability": "nonpayable",
      "type": "constructor"
    },
    {
      "anonymous": false,
      "inputs": [
        {
          "indexed": true,
          "internalType": "string",
          "name": "complaintId",
          "type": "string"
        },
        {
          "indexed": false,
          "internalType": "string",
          "name": "complaintHash",
          "type": "string"
        },
        {
          "indexed": false,
          "internalType": "uint256",
          "name": "timestamp",
          "type": "uint256"
        }
      ],
      "name": "ComplaintRecorded",
      "type": "event"
    },
    {
      "anonymous": false,
      "inputs": [
        {
          "indexed": true,
          "internalType": "string",
          "name": "complaintId",
          "type": "string"
        },
        {
          "indexed": false,
          "internalType": "string",
          "name": "newStatus",
          "type": "string"
        },
        {
          "indexed": false,
          "internalType": "uint256",
          "name": "updatedAt",
          "type": "uint256"
        }
      ],
      "name": "StatusUpdated",
      "type": "event"
    },
    {
      "inputs": [
        {
          "internalType": "string",
          "name": "_complaintId",
          "type": "string"
        }
      ],
      "name": "getComplaint",
      "outputs": [
        {
          "internalType": "string",
          "name": "",
          "type": "string"
        },
        {
          "internalType": "string",
          "name": "",
          "type": "string"
        },
        {
          "internalType": "uint256",
          "name": "",
          "type": "uint256"
        },
        {
          "internalType": "string",
          "name": "",
          "type": "string"
        }
      ],
      "stateMutability": "view",
      "type": "function"
    },
    {
      "inputs": [],
      "name": "getTotalComplaints",
      "outputs": [
        {
          "internalType": "uint256",
          "name": "",
          "type": "uint256"
        }
      ],
      "stateMutability": "view",
      "type": "function"
    },
    {
      "inputs": [],
      "name": "owner",
      "outputs": [
        {
          "internalType": "address",
          "name": "",
          "type": "address"
        }
      ],
      "stateMutability": "view",
      "type": "function"
    },
    {
      "inputs": [
        {
          "internalType": "string",
          "name": "_complaintId",
          "type": "string"
        },
        {
          "internalType": "string",
          "name": "_complaintHash",
          "type": "string"
        },
        {
          "internalType": "string",
          "name": "_status",
          "type": "string"
        }
      ],
      "name": "recordComplaint",
      "outputs": [],
      "stateMutability": "nonpayable",
      "type": "function"
    },
    {
      "inputs": [
        {
          "internalType": "string",
          "name": "_complaintId",
          "type": "string"
        },
        {
          "internalType": "string",
          "name": "_newStatus",
          "type": "string"
        }
      ],
      "name": "updateStatus",
      "outputs": [],
      "stateMutability": "nonpayable",
      "type": "function"
    }
  ],
  "bytecode": "0x608060405234801561001057600080fd5b5033600260006101000a81548173ffffffffffffffffffffffffffffffffffffffff021916908373ffffffffffffffffffffffffffffffffffffffff16021790555061109b806100616000396000f3fe608060405234801561001057600080fd5b50600436106100575760003560e01c806305fd4b811461005c578063347047cc1461008f57806359f97801146100ab5780637636454a146100c95780638da5cb5b146100e5575b600080fd5b610076600480360381019061007191906108ef565b610103565b60405161008694939291906109d0565b60405180910390f35b6100a960048036038101906100a49190610a2a565b6103a3565b005b6100b3610523565b6040516100c09190610aa2565b60405180910390f35b6100e360048036038101906100de9190610abd565b610530565b005b6100ed61076f565b6040516100fa9190610ba5565b60405180910390f35b6060806000606060008560405161011a9190610bfc565b908152602001604051809103902060040160009054906101000a900460ff16610178576040517f08c379a000000000000000000000000000000000000000000000000000000000815260040161016f90610c5f565b60405180910390fd5b600080866040516101899190610bfc565b90815260200160405180910390206040518060a00160405290816000820180546101b290610cae565b80601f01602080910402602001604051908101604052809291908181526020018280546101de90610cae565b801561022b5780601f106102005761010080835404028352916020019161022b565b820191906000526020600020905b81548152906001019060200180831161020e57829003601f168201915b5050505050815260200160018201805461024490610cae565b80601f016020809104026020016040519081016040528092919081815260200182805461027090610cae565b80156102bd5780601f10610292576101008083540402835291602001916102bd565b820191906000526020600020905b8154815290600101906020018083116102a057829003601f168201915b50505050508152602001600282015481526020016003820180546102e090610cae565b80601f016020809104026020016040519081016040528092919081815260200182805461030c90610cae565b80156103595780601f1061032e57610100808354040283529160200191610359565b820191906000526020600020905b81548152906001019060200180831161033c57829003601f168201915b505050505081526020016004820160009054906101000a900460ff161515151581525050905080600001518160200151826040015183606001519450945094509450509193509193565b600260009054906101000a900473ffffffffffffffffffffffffffffffffffffffff1673ffffffffffffffffffffffffffffffffffffffff163373ffffffffffffffffffffffffffffffffffffffff1614610433576040517f08c379a000000000000000000000000000000000000000000000000000000000815260040161042a90610d2b565b60405180910390fd5b6000826040516104439190610bfc565b908152602001604051809103902060040160009054906101000a900460ff166104a1576040517f08c379a000000000000000000000000000000000000000000000000000000000815260040161049890610c5f565b60405180910390fd5b806000836040516104b29190610bfc565b908152602001604051809103902060030190816104cf9190610ef7565b50816040516104de9190610bfc565b60405180910390207febaa90c622578c1690836a6f8f46de08913df35f09f88e73a2f03a6db1cd70f28242604051610517929190610fc9565b60405180910390a25050565b6000600180549050905090565b600260009054906101000a900473ffffffffffffffffffffffffffffffffffffffff1673ffffffffffffffffffffffffffffffffffffffff163373ffffffffffffffffffffffffffffffffffffffff16146105c0576040517f08c379a00000000000000000000000000000000000000000000000000000000081526004016105b790610d2b565b60405180910390fd5b6000836040516105d09190610bfc565b908152602001604051809103902060040160009054906101000a900460ff161561062f576040517f08c379a000000000000000000000000000000000000000000000000000000000815260040161062690611045565b60405180910390fd5b6040518060a00160405280848152602001838152602001428152602001828152602001600115158152506000846040516106699190610bfc565b9081526020016040518091039020600082015181600001908161068c9190610ef7565b5060208201518160010190816106a29190610ef7565b506040820151816002015560608201518160030190816106c29190610ef7565b5060808201518160040160006101000a81548160ff02191690831515021790555090505060018390806001815401808255809150506001900390600052602060002001600090919091909150908161071a9190610ef7565b50826040516107299190610bfc565b60405180910390207fa9d04c215c505d18bbcaf61d31e07984417e46d3c374abfd6c7d80fd78009f568342604051610762929190610fc9565b60405180910390a2505050565b600260009054906101000a900473ffffffffffffffffffffffffffffffffffffffff1681565b6000604051905090565b600080fd5b600080fd5b600080fd5b600080fd5b6000601f19601f8301169050919050565b7f4e487b7100000000000000000000000000000000000000000000000000000000600052604160045260246000fd5b6107fc826107b3565b810181811067ffffffffffffffff8211171561081b5761081a6107c4565b5b80604052505050565b600061082e610795565b905061083a82826107f3565b919050565b600067ffffffffffffffff82111561085a576108596107c4565b5b610863826107b3565b9050602081019050919050565b82818337600083830152505050565b600061089261088d8461083f565b610824565b9050828152602081018484840111156108ae576108ad6107ae565b5b6108b9848285610870565b509392505050565b600082601f8301126108d6576108d56107a9565b5b81356108e684826020860161087f565b91505092915050565b6000602082840312156109055761090461079f565b5b600082013567ffffffffffffffff811115610923576109226107a4565b5b61092f848285016108c1565b91505092915050565b600081519050919050565b600082825260208201905092915050565b60005b83811015610972578082015181840152602081019050610957565b60008484015250505050565b600061098982610938565b6109938185610943565b93506109a3818560208601610954565b6109ac816107b3565b840191505092915050565b6000819050919050565b6109ca816109b7565b82525050565b600060808201905081810360008301526109ea818761097e565b905081810360208301526109fe818661097e565b9050610a0d60408301856109c1565b8181036060830152610a1f818461097e565b905095945050505050565b60008060408385031215610a4157610a4061079f565b5b600083013567ffffffffffffffff811115610a5f57610a5e6107a4565b5b610a6b858286016108c1565b925050602083013567ffffffffffffffff811115610a8c57610a8b6107a4565b5b610a98858286016108c1565b9150509250929050565b6000602082019050610ab760008301846109c1565b92915050565b600080600060608486031215610ad657610ad561079f565b5b600084013567ffffffffffffffff811115610af457610af36107a4565b5b610b00868287016108c1565b935050602084013567ffffffffffffffff811115610b2157610b206107a4565b5b610b2d868287016108c1565b925050604084013567ffffffffffffffff811115610b4e57610b4d6107a4565b5b610b5a868287016108c1565b9150509250925092565b600073ffffffffffffffffffffffffffffffffffffffff82169050919050565b6000610b8f82610b64565b9050919050565b610b9f81610b84565b82525050565b6000602082019050610bba6000830184610b96565b92915050565b600081905092915050565b6000610bd682610938565b610be08185610bc0565b9350610bf0818560208601610954565b80840191505092915050565b6000610c088284610bcb565b915081905092915050565b7f436f6d706c61696e74206e6f7420666f756e6400000000000000000000000000600082015250565b6000610c49601383610943565b9150610c5482610c13565b602082019050919050565b60006020820190508181036000830152610c7881610c3c565b9050919050565b7f4e487b7100000000000000000000000000000000000000000000000000000000600052602260045260246000fd5b60006002820490506001821680610cc657607f821691505b602082108103610cd957610cd8610c7f565b5b50919050565b7f4e6f7420617574686f72697a6564000000000000000000000000000000000000600082015250565b6000610d15600e83610943565b9150610d2082610cdf565b602082019050919050565b60006020820190508181036000830152610d4481610d08565b9050919050565b60008190508160005260206000209050919050565b60006020601f8301049050919050565b600082821b905092915050565b600060088302610dad7fffffffffffffffffffffffffffffffffffffffffffffffffffffffffffffffff82610d70565b610db78683610d70565b95508019841693508086168417925050509392505050565b6000819050919050565b6000610df4610def610dea846109b7565b610dcf565b6109b7565b9050919050565b6000819050919050565b610e0e83610dd9565b610e22610e1a82610dfb565b848454610d7d565b825550505050565b600090565b610e37610e2a565b610e42818484610e05565b505050565b5b81811015610e6657610e5b600082610e2f565b600181019050610e48565b5050565b601f821115610eab57610e7c81610d4b565b610e8584610d60565b81016020851015610e94578190505b610ea8610ea085610d60565b830182610e47565b50505b505050565b600082821c905092915050565b6000610ece60001984600802610eb0565b1980831691505092915050565b6000610ee78383610ebd565b9150826002028217905092915050565b610f0082610938565b67ffffffffffffffff811115610f1957610f186107c4565b5b610f238254610cae565b610f2e828285610e6a565b600060209050601f831160018114610f615760008415610f4f578287015190505b610f598582610edb565b865550610fc1565b601f198416610f6f86610d4b565b60005b82811015610f9757848901518255600182019150602085019450602081019050610f72565b86831015610fb45784890151610fb0601f891682610ebd565b8355505b6001600288020188555050505b505050505050565b60006040820190508181036000830152610fe3818561097e565b9050610ff260208301846109c1565b9392505050565b7f416c7265616479207265636f7264656400000000000000000000000000000000600082015250565b600061102f601083610943565b915061103a82610ff9565b602082019050919050565b6000602082019050818103600083015261105e81611022565b905091905056fea264697066735822122097a46f50b01fa007d826fdf444c885a2155868018613ede06fa3fe7b32e292a164736f6c63430008130033",
  "linkReferences": {},
  "deployedLinkReferences": {}
}